:020000040000fa
:080000000001040000000000f3
:020000040000fa
:10000800bc020000bc020000bc020000bc020000f0
:10001800bc020000bc020000bc020000bc020000e0
:100028001e5e0000bc020000bc020000bc02000012
:10003800bc020000bc020000225c0000bc02000000
:10004800bc020000da65000094640000d22f0000b2
:10005800bc020000bc020000c84c0000bc0200004a
:10006800bc020000bc020000bc020000bc02000090
:10007800bc0200005a660000aa010000bc02000091
:1000880098650000f4640000bc020000bc02000097
:10009800bc020000bc020000bc020000bc02000060
:1000a800bc020000bc020000bc020000bc02000050
:1000b800bc020000bc020000bc020000bc02000040
:1000c800bc020000bc020000bc020000bc02000030
:1000d800bc020000bc020000bc020000bc02000020
:1000e800bc020000bc020000bc020000bc02000010
:0800f800bc020000bc02000084
:020000040000fa
:10010800bc020000bc020000bc020000bc020000ef
:10011800bc020000bc020000bc020000bc020000df
:100128001e5e0000bc020000bc020000bc02000011
:10013800bc020000bc020000225c0000bc020000ff
:10014800bc020000da65000094640000d22f0000b1
:10015800bc020000bc020000c84c0000bc02000049
:10016800bc020000bc020000bc020000bc0200008f
:10017800bc0200005a660000aa010000bc02000090
:1001880098650000f4640000bc020000bc02000096
:10019800bc020000bc020000bc020000bc0200005f
:1001a800bc020000bc020000bc020000bc0200004f
:1001b800bc020000bc020000bc020000bc0200003f
:1001c800bc020000bc020000bc020000bc0200002f
:1001d800bc020000bc020000bc020000bc0200001f
:1001e800bc020000bc020000bc020000bc0200000f
:0801f800bc020000bc02000083
:020000040000fa
:100200002f4922000e7f22000e018800000000000e
:10021000000020000000e000020032000001200089
:10022000200288000c000700e09523000100200058
:1002300011000700000020000000e0000200320072
:1002400000000200000000005465020000000000f1
:100250000040da000000fe004440a9000000200039
:100260000000e0000300320000002000a001880030
:100270004440a8000000060091018800800078003a
:100280000000eb0015003700e280400032a0b4000f
:100290009101ba00e280400032a0b4009102ba009d
:1002a000e280400032a0b4000002eb00472bde00e9
:1002b000f507b200602ce10004003a000059eb00a1
:1002c0008301e900fdff3e00040037006128e100e2
:1002d000010032000082eb00040007001101ba00a7
:1002e0000200e000e8ff3a00000006003159ba00c1
:1002f0008301e9000c0032002159ba008301e900b2
:10030000080032000400e00003003a00e2804000f0
:1003100032a0b400f5ff370011d9ba008301e9001b
:10032000faff3a008100e800e180400032a0b4000a
:1003300000000600fa22040000000000e24c040065
:1003400000000000b44d040000000000605e0400e6
:10035000000000003400f800881f7800080020002a
:10036000a80188004f0478000000fa0086c0a900a8
:100370001fe1a80021e1a9000080fa003400f90083
:10038000004006000000fa00240020000409880054
:100390000002eb00c408880014002000e408880074
:1003a00086c0a9008ec0a80021e1a8000080fa0044
:1003b000000006000000fa0024002000f408880075
:1003c000c40d8100a4088800c40d81000402e80067
:1003d000d408880086a0a9001fe1a9008ea0a8006b
:1003e0000080fa00000006000200fa00000f78000a
:1003f0000002eb00a46288001e027800a40d8900b0
:100400000002eb00b40d8900eaff0700ddff0700e2
:100410000080fa00000006001000fa003007980083
:1004200041079800520798006307980074079800e6
:100430000002eb0014079800ce0290005e029000cc
:1004400004aab900840278006e0290000402e80059
:1004500004aab900040278000402e80084027800cb
:10046000a4142000848f5200020036000082eb00aa
:10047000390037000002eb00040f78002800370035
:100480000002eb00240798000b003700a51b220098
:100490001e0290000482420015c0b300054a780095
:1004a0001e0290000402e800140798002e0290003b
:1004b0000402e80024079800ae0290005e0290005b
:1004c000848f5200f1ff35000002eb0024079800f2
:1004d0000b003700a51b22001e0290000482420080
:1004e0008042eb00054a78001e0290000402e800fa
:1004f000140798002e0290000402e80024079800d8
:10050000ee0290005e02900004aab9008402780016
:100510002e029000848f5200eeff3c001e0fe80078
:100520004e0290009e027800848f5200d4ff350066
:10053000a51b22001e0290000482420025c0b300c9
:10054000054a78007e029000c40d89003e029000aa
:10055000b46288000002eb00040078000080fa001a
:10056000000006000000fa00b40d810004007800cd
:100570000080fa00000006000040da000000fe00e3
:1005800064108000e00f520006003d00044020008f
:100590007510800005026200020032000f02ab00fd
:1005a000feff32000040da00feff3700889fbe00e9
:1005b00080047800f0228100e00f500004003a002f
:1005c0000e0007000084eb00e00f5000080035002b
:1005d000f8228100e08f5400050032000900440039
:1005e00006000700e00f500001003d000084eb0012
:1005f000080078004f04be0000000600e00f500025
:1006000004003a0004462200f42289000002780027
:10061000060037000082eb0025492200850f5000bc
:1006200002003e00f02289000002eb000400780086
:100630000000060003f0a200889fbe008a9fbe0053
:100640008c1f7800ae010700b50133006450e10053
:100650004f0032006420e1005200320003826c003f
:1006600007003b000905d0000306d000820f5400ac
:100670000c065d000200390002003200890178009a
:10068000030678008582550004003d000003fd004c
:100690008103fd008502ea008b854200840f720011
:1006a00002003b0060001000e08018006011b800fc
:1006b0000005eb007a28e1000a0039000600780006
:1006c000c75ddd00f707b200878075002d00370099
:1006d000828171000a017800610560008180d1008b
:1006e0000080d3008502e900f9ff3b0006044000ca
:1006f0008784480002003b0060041400e0841c0072
:100700000988a300070032008a817100828171008c
:10071000610164008904d1000884d3008b05e800de
:10072000170037000978a30013003a000b00e0001f
:10073000130034008b05e9000804440089844c0050
:100740000a4474000978a3000d003a000b00e00091
:10075000070034008b05e9000804440089844c003c
:1007600001003a000b0020000978a300f7ff3200d7
:100770000001eb0002003700828171000a0178005d
:10078000240107000cf0a70001f0a0006d01370064
:100790006420e10002003a00838f6c006d01330099
:1007a0000801be000200be0066013700889fbe003f
:1007b0008a9fbe008c1f78005101070010022000a4
:1007c00002003b00c0628800550137008a006200c9
:1007d0006408e10002003a00c06288005d01370051
:1007e0006108e100fcff32000800be00030478004d
:1007f0007000070001f0a1000900070008f0a60042
:10080000040037000001be0091042400b0fd200068
:1008100088ff070009f0a70001f0a2004901370096
:10082000889fbe008a9fbe008c9fbe000004be0051
:100830001e0107000800be00890678006420e10060
:1008400008003900040032000160a00012022000fc
:10085000c26288005300370091fc2300b0fd2000e5
:100860004e0037000006eb0009f0a10003f823005a
:10087000020020000800be009f00070006003400b0
:1008800001f82300000020000801be004900070015
:100890000004be002c0020000800be0093e82300e6
:1008a000320a230094000700120034000801be0041
:1008b000d1fd2300703d2b005fff07000005be0047
:1008c000b3f32300f27a26000800be0024010700db
:1008d00003f823000200200056ff07000801be00b5
:1008e00055ff07000a01be00320007000004be00e9
:1008f0000c06e8000800be0001f0a1000200200084
:10090000039823007c0007000800be001600350095
:100910000801be00120107000005be0032cd2c0008
:1009200043fb230044ff0700809fbe00126928009c
:1009300003d52b000a00be0009010700620f210049
:1009400013ef2b003cff07000a01be000401070063
:100950004f01be00170007000801be00000107009c
:100960000801be0034ff07000c00e0000b0032005d
:100970000c10a70001f0a200b2fd200093fc2300a0
:100980006260e1000400320022a9200063f023002d
:100990000c10a70063f8230027ff07000df0a70045
:1009a00001f0a2004f06be004f05be004f04be007e
:1009b00000000600889fbe008a9fbe008c1f780042
:1009c000cf000700d600330003866c006450e100be
:1009d0002e0032006420e100330032006150e1005b
:1009e0002f0032006120e100310032008585550082
:1009f000eb07b000090020000804200005003700c4
:100a00000804440089844c000a00310006034300b6
:100a100087834b000001530081815b00f8ff3300a6
:100a20000203be000800a0000804440089844c00b2
:100a3000f6ff3900c639dd00830173000100320082
:100a4000130020008904d1000884d3000998a30072
:100a5000050032000800a7000300a0008904d100af
:100a60000884d3008b05e8008904d1000884d300f2
:100a70000001eb000281d2006600070001f0a10036
:100a80000cf0a70001f0a000ae0037006420e100e8
:100a9000b00032000801be000200be00f7ff3700c0
:100aa0006120e100ab0032006000b800f3ff3700c6
:100ab0000000200001f82700f0ff3700839f680046
:100ac0000100e00002003d0060001000e08018001e
:100ad0000300e00002003d0060011100e081190008
:100ae000080107004f00e00002003b00600010001a
:100af000e0801800000006001400200011013700fb
:100b0000f4ff2f000f0137000001be00670007004f
:100b10000470a70003f0a1006509b10016003200bf
:100b20000d0035006828e10006003500f0ff2f00b9
:100b3000f1ff27000300e00013003b000100280044
:100b40000000050000004000818048008502e900a7
:100b5000fcff3a0008003700f88f420002003c001a
:100b60008000eb00000005008100d1000080d30070
:100b70008502e800fcff3a000300e00002003b00b1
:100b800060001000e0801800000006000001be00b8
:100b9000460007000470a70003f0a10003f8a300bb
:100ba00013003a006509b100100032000900350059
:100bb0006928e1000200350001002800000005005e
:100bc00000004000818048008502e900fcff3a00f7
:100bd00000000600f88f4200050035008100d100ba
:100be0000080d3008502e800fcff3a000000060008
:100bf0008000eb00000005004f89de0082017800d4
:100c0000eb0037006011b800f90037000400200045
:100c1000cc00370081002000618055000b003d00b2
:100c20000b00200061fe2f000100e1001d003400d8
:100c300082817100610164008904d1000884d300bd
:100c40000000e800faff3a00710020006100640033
:100c500003007000020060000900320061044400db
:100c6000e0844c000988a500050032008b05e800ef
:100c70006808e10002003a008904d1000884d3002a
:100c8000f20f20000258e10005003d00c75ddd00c5
:100c9000f907b2008980750008007800000006009e
:100ca0000bf827008b00780000000500c70ade0063
:100cb000f107b200f50fb20008003200e1cf4200a8
:100cc000020032000170a00024000500810f7000b6
:100cd000010032000408050044000500810f700087
:100ce00002003a00140005008502e90000004000ff
:100cf00081c04800fcff3b000170a00024000500fb
:100d00000004be00e9ff07000003be000405be00aa
:100d10000200be00e5ff0700844f750000000600da
:100d20000200be006450e100050036006420e100ce
:100d3000020036000968a30001003a000800be0066
:100d40000160a0004f0678004f05be004f04be00b2
:100d500000000600f0ff2f00f1ff2700f9ff370029
:100d6000889fbe008a9fbe008c1f7800e4ff0700aa
:100d7000ebff330003866c006450e1002400320076
:100d80006420e100270032006150e10022003200bf
:100d90006120e100210032008b854200eb07b100a9
:100da0000134b800003ab8000804420089844a00bf
:100db000013ab8000030b8008880400009014a00bc
:100dc0000400330000004000818048000201490017
:100dd0008b05e900c909dd008301700001003200c4
:100de00013002000c814de004814dd004709de00af
:100df0001200b200c808de000884700085ff0700fa
:100e000001f0a1000cf0a70001f0a000cdff370019
:100e10006120e100cfff32000801be000200be00e9
:100e2000f7ff37006150e100fcff3a00c9ff3700cf
:100e3000889fbe008a9fbe008c1f78000004be0001
:100e40009aff07000478a30026003a006120e10021
:100e50002500320009f8a30025003a006420e100d3
:100e600021003200f507b1000508a300020032009e
:100e700000004000818048006044b800031020005a
:100e80000200200000004000818048000805440066
:100e900089854c000a0541008b8549000a055000f0
:100ea0008b855800030033000a00be000204740062
:100eb000838474008301d1000281d300830f710009
:100ec000f0ff3a008904d1000884d3006001490092
:100ed00082017800c1adde00fb07b0004dff0700c6
:100ee00098ff37000960a0000800be0095ff37009a
:100ef00012022000c2628800f0ff2f00f1ff2700dd
:100f000090ff37006022b800060220000000d000e9
:100f10008180d2000482d2008582d2000000a0002d
:100f20000202520083825a00030031000202420092
:100f300083824a000000a1000603e900f3ff3a00a3
:100f400000000600889fbe008a9fbe00841f7800b4
:100f50006bff07004f00780011003300f0ff2f00f7
:100f6000838f6c0006003b00040565000a00a700a3
:100f70000800370009f0a600100020000800370024
:100f8000820f5400838f5c000300390010002000a2
:100f900001003e000000200009f0a7000000ea0068
:100fa0004f05be004f04be000000e0000000060038
:100fb000881f7800030478000300e00007003d006c
:100fc00060001000e080180060011900e081190045
:100fd00002003b0001f02d00030037000400070071
:100fe00008f0a70001f0a0004f0478000000060000
:100ff000889fbe008a9fbe000082700004027100bc
:1010000004827100260032000004be000200be000f
:101010006011b8006b092000950220000182cf000a
:101020000a0039000541b1000082cf0007003900f5
:101030000541b1000982cf00040039000541b1002b
:101040000882cf00010039000541b100054252007d
:10105000120032000a003b008281710061016400cd
:101060008100d1000080d3008984d3000884d3009c
:101070008b05e8000442e800f7ff3a00070037005c
:101080000804440089844c00000048008180480026
:101090008b05e9000442e900f9ff3a00ddfe070094
:1010a0004f05be004f04be000000060006c2b3009c
:1010b0000002780004007800b042780086cf520029
:1010c000fbff3200e9cf5200f9ff3200d6c2b30075
:1010d00086cf520003003a000002780016c0b30029
:1010e000050037000043eb00b7c2b30087cf5200c2
:1010f00001003a00000278000000eb000200370017
:101100006a00b90000804200b402fb000503b10090
:10111000e98f5200faff3600e04f53000100320021
:101120000000ea000000060000047800e10007006b
:101130000800780012fd070084422200e48747007f
:1011400045218100889fbe008a9fbe008c9fbe0003
:101150008e1f7800e08f52000b003a0024029800a6
:10116000e4024200c422890045218900d522890079
:10117000a44290000504a00025429800e44290009b
:101180000504a00065429800670440000446220060
:10119000250020004244de00294922004244dd00af
:1011a0008484540005074400110009008504d80018
:1011b0005c492200c22281000406560080bf9f00c5
:1011c0000e0747000003eb00e40544000806460054
:1011d00002003700160020000d0178002242900026
:1011e00061026200020032000a003700150978002f
:1011f000920278002542900061026200fbff3200fb
:1012000008024100848f520002003900e00f5400b0
:101210003f003d00920678000d00a100828f56002d
:10122000edff3e00e10f5300eaff3a000fba9700ce
:10123000840f540002003600890f5400100039005a
:10124000614ab900b0ff2f00010020006143b800df
:101250000402500085825800840f5300858f5b0084
:10126000020035000b057800060037001100090068
:101270000986d8000982b90004057800010037000a
:101280000e0578000a007800c8fc0700e10f400056
:1012900005003a000b0578000b007800c3fc07003e
:1012a000e10f40002b003200d4228100000a7800b8
:1012b000d422810064034200a4429000860f5000b3
:1012c000020032000504a000010037000504a1005f
:1012d0002542980064055500844222000a0540001a
:1012e0000a087800da228900040d7800d5228100ee
:1012f0000003eb00254290000404a000a4429800e3
:10130000204290000404a10024409800b2ff37005e
:10131000c4228900848f5200070036001403be00e7
:101320008042eb003622890047228900120a7800a9
:10133000c42281002542980022429000c7228100e9
:101340000404a000070978002441980064004100cb
:10135000010037000000eb004f0778004f06be0089
:101360004f05be004f04be004f00b1000000060054
:10137000e00f50000800320064005000c4228100d9
:10138000840f500001003100c022890020429000eb
:101390000404a1002440980000000600889fbe00bd
:1013a000000478008a9fbe0081047800e08f54001a
:1013b00005003a00e00f54003200320008007800c7
:1013c000ebff070030003700e00f540004003a0044
:1013d0000900780058ff0700800478002a003700d1
:1013e000640254009405780068fa97006102620074
:1013f0000200320008007800ddff070009007800d5
:101400004dff070080047800e08f54001e0032007a
:10141000888f54001b00320069bd970088855500f5
:1014200009055500c2ddde0042d5de000a01780064
:101430008b0f5500010036000b0178004211dd00d2
:10144000880078000900780013000700888f540096
:101450000d0031004255dd000a854400880f55001b
:10146000090036000804550034228100452281001d
:1014700042c4de004244dd0008844400048cbe0007
:101480000100370088047800090078004f05be008d
:101490004f04be0000000600000278000200370082
:1014a000315a78000201e900e00f5100fcff3a00d8
:1014b0000000060000000600000278008042eb00f9
:1014c000b4cf1200fdff3a000080ea0000004200a5
:0414d0000000060012
:020000040000fa
:1014d4000800fa000002eb00040f7800000222006a
:1014e4000403070000027800340798000002eb00b0
:1014f40014079800ab0037001e0290007d22b9004b
:1015040004027800660242000502220065427a0065
:101514000482fb000402e9004f22de000443780049
:101524001e0290007d22b900040278006702420086
:101534000502220065427a000482fb000402e900ed
:101544004f22de0004427800044263000483fb005f
:101554001e0290007d22b900040278006802420055
:101564000502220065427a000482fb000402e900bd
:101574004f22de00040363001e0290007d22b900a6
:1015840004027800650242000502220065427a00e6
:101594000434a2000482fb000402e9004f22de00ae
:1015a40004026300e00f52007b0032001e02900030
:1015b4007d22b900840278000402220004824200e1
:1015c400040078004f0307001e0290007d22b9003a
:1015d400040278006802420015022200e5427a0003
:1015e40054c6b30084c26a000582fb000402e90009
:1015f4004f22de00844278001e0290007d23b90051
:1016040006027800690242001602220066437a004c
:10161400d4c2b30004426b000482fb000402e9005c
:101624004f22de000442780004c262000483fb00ff
:101634001e0290007d22b900040278006a02420072
:1016440015022200e5427a0004c7b30004c26a000e
:101654000482fb000402e9004f22de00040263005e
:10166400e00f52004c0032000002eb002407980007
:10167400250037001e0290007d22b9008402780004
:101684002e029000048242000502220065437a0083
:101694001e027800271422006b22b900840278000d
:1016a4002e0290000482420004824300064a78001d
:1016b4002e029000670342001e0290007d22b900b2
:1016c4000402780006024200680242001502220069
:1016d40065427a00044378001e0278002714220031
:1016e4006b22b90004027800848243002e02900029
:1016f4000482420066024200064a78002e029000ec
:101704000402e800240798002e029000e30f520020
:10171400d8ff34001e027800261422006b22b90080
:1017240004027800040243006a0242008042eb0093
:10173400054a78004400200024079800120037006e
:101744001e0290007d22b900840278002e029000cf
:10175400048242000502220065437a001e027800da
:10176400271422006b22b900840278002e02900014
:101774000482420004824300064a78002e0290004c
:101784000402e800240798002e029000e50f52009e
:10179400ebff34001e0fe8001e0290000402e80074
:1017a400140798009e0290003e029000848f52001d
:1017b40051ff35001e027800040078000080fa0012
:1017c400000006000400fa00001b2200f7000700d6
:1017d4003fff070000027800040f78001e02780023
:1017e400e00f52000c003200841422000400780040
:1017f4008101070024142200040078001d0307005f
:101804000042780024479800001b22007a01070058
:101814002e4290000100370034c6b3000440780023
:101824000080fa00000006002e00fa0024c0b30075
:101834003447980024c5b3004447980064c2b300f9
:10184400544798000042eb00644798000042eb00c4
:101854007447980084c7b300044f980034c0b300a1
:10186400144f9800630247007100200004007800c0
:10187400d8640200000000000002eb00040f7800ae
:101884000042eb00244798001e027800ea02470059
:101894000482420004007800006602000000000098
:1018a40000027800e00f5200050032006a0247008f
:1018b4001e02420094427800254798001e0fe8005b
:1018c4002e429000e34f5200efff3a005e4a900030
:1018d4000402fb00660242009e0f5200eaff3c0035
:1018e4006a0247001e0242008042eb00054a78006b
:1018f4000002eb00040f7800090037009e02780014
:101904006782420004024700a44a90008402200037
:101914000e0242001e024200054a78001e0fe80033
:101924000e5290000402fb009e0f5200f3ff3c0095
:10193400840220000e0242001e0242008042eb009c
:10194400054a7800840220000e0242000400780058
:10195400560802000000000000027800040078002d
:101964000080fa00000006001600fa0024c0b3004c
:101974003447980024c5b30044479800a4c1b30079
:10198400544798000042eb00644798000042eb0083
:1019940074479800c4c6b300044f980034c0b30021
:1019a400144f98006302470071002000040078007f
:1019b400d8640200000000000002eb00040f78006d
:1019c4000042eb00244798001e027800eb02470017
:1019d4000482420004007800006602000000000057
:1019e40000027800e00f5200050032006b0247004d
:1019f4001e02420094427800254798001e0fe8001a
:101a04002e429000e34f5200efff3a006e4a9000de
:101a14000402fb00660242009e0f5200eaff3c00f3
:101a24006b0247001e0242008042eb00054a780028
:101a34001e529000044078000080fa000000060066
:101a44001600fa0024c0b3003447980024c5b3003c
:101a54004447980014c1b3005447980014c0b3001d
:101a6400644798000042eb007447980044c6b300f2
:101a7400044f980014c0b300144f980034c0b3004e
:101a8400244f98006302470081002000040078007e
:101a9400d8640200000000000002eb00040f78008c
:101aa4000042eb00244798001e027800eb02470036
:101ab4000482420004007800006602000000000076
:101ac40000027800e00f5200050032006b0247006c
:101ad4001e02420094427800254798001e0fe80039
:101ae4002e429000e34f5200efff3a006e4a9000fe
:101af4000402fb00660242009e0f5200eaff3c0013
:101b04006b0247001e0242008042eb00054a780047
:101b14001e529000044078000080fa000000060085
:101b24000400fa00881f78000de2a900de62a90013
:101b3400e262a9006022b800048fbe0004003700ee
:101b440014002000050020001e0f42005e974a008a
:101b54001e00be00fc050200000000000002be00e2
:101b640018c0b30062662600636624000400be0049
:101b74007c0502000000000000027800e00f520023
:101b8400010035000044eb00e04f5400ecff3a0044
:101b9400e262a800de62a800926602000000000073
:101ba4004f0478000080fa00000006002a00fa00c2
:101bb4004017980024c0b3003447980024c5b300ec
:101bc4004447980064c1b300544798000042eb00b6
:101bd400644798000042eb007447980084c6b30041
:101be400044f980034c0b300144f980063024700b8
:101bf4007100200004007800d86402000000000096
:101c04000002eb00040f78000042eb002447980028
:101c1400ea0247001e0278000482420004007800b1
:101c2400006602000000000000027800e00f52008d
:101c3400050032006a0247001e0242001442780086
:101c4400244798001e0fe8002e429000e34f5200f4
:101c5400efff3a005e4a90000482fb0066024200f5
:101c64009e0f5200eaff3c006a0247001e02420037
:101c74008042eb00054a78000002eb00040f780074
:101c8400090037001e027800ce1290000482420040
:101c94001e037800e802430085024700a54a90002d
:101ca400054a78001e0fe8001e5290000482fb00d3
:101cb4009e0f5200f3ff3c001e027800ce129000eb
:101cc400048242008042eb00054a78000e529000e4
:101cd400044078000080fa00000006003400fa0096
:101ce400101f980024c0b3003447980024c5b300e3
:101cf4004447980034c0b300544798000042eb00b6
:101d0400644798000042eb007447980054c5b30040
:101d1400044f980034c0b300144f98006302470086
:101d24007100200004007800d86402000000000064
:101d34000002eb00040f78000042eb0024479800f7
:101d44001e027800ea024700048242000400780080
:101d5400006602000000000000027800e00f52005c
:101d6400050032006a0247001e02420094427800d5
:101d7400254798001e0fe8002e429000e34f5200c2
:101d8400efff3a005e4a90000402fb006602420044
:101d94009e0f5200eaff3c006a0247001e02420006
:101da4008042eb00054a78000002eb00040f780043
:101db400090037001e0278009e1a90000482420037
:101dc4001e037800e802430085024700a54a9000fc
:101dd400054a78001e0fe8001e5290000402fb0022
:101de4009e0f5200f3ff3c000e5290000440780016
:101df4000080fa00000006003000fa007017980016
:101e04007e1090005c0a02000000000000027800ce
:101e14002407980024c0b3006447980024c5b30085
:101e24007447980074c1b300044f98002e029000c8
:101e3400044278000442e800144f98000042eb008a
:101e4400244f98007e429000844278000e4a90000d
:101e540084c242001e4a900004c24200344f9800db
:101e64002e02900004427800444f98000002eb00d8
:101e7400040f7800090037009e0278006782420050
:101e84009e0278007e1390008502430095427800fc
:101e940004024700654298001e0fe8002e029000dd
:101ea4009e027800848f5200f3ff35002e029000ca
:101eb400670242000402470035c0b300654298003f
:101ec4002e029000e8024200660247008500780076
:101ed40004007800d8640200000000000002eb0057
:101ee400040f78000042eb00244798001e0278009b
:101ef400450220008e8242000482420004007800e1
:101f0400006602000000000000027800e00f5200aa
:101f140006003200440220000e0242001e0242006b
:101f240094427800254798001e0fe8002e42900046
:101f3400e34f5200edff3a007e6290000402fb0082
:101f4400660242009e0f5200e8ff3c00440220005b
:101f54000e0242001e0242008042eb00054a780055
:101f64002e6a9000044078000080fa000000060009
:101f74003a00fa00401f98004e1890005c0a0200d4
:101f84000000000000027800240798002e02900050
:101f94000402e8002407980024c0b30064479800b2
:101fa40024c5b3007447980044c0b300044f98009c
:101fb4002e029000044278000442e800144f980076
:101fc4000042eb00244f98007e4290008442780047
:101fd4000e4a900084c242001e4a900004c242008d
:101fe400344f98002e02900004427800444f980029
:101ff4000002eb00040f7800090037009e0278000d
:10200400678242009e0278004e1b900085024300c6
:102014009542780004024700654298001e0fe800cc
:102024002e0290009e027800848f5200f3ff350048
:102034002e029000670242000402470035c0b3003c
:10204400654298002e029000e802420066024700b2
:102054008500780004007800d864020000000000c5
:102064000002eb00040f78000042eb0024479800c4
:102074001e027800e50220008e82420004824200a3
:1020840004007800006602000000000000027800ee
:10209400e00f520006003200e40220000e0242006b
:1020a4001e02420094427800254798001e0fe80063
:1020b4002e429000e34f5200edff3a001e72900052
:1020c4000402fb00660242009e0f5200e8ff3c003f
:1020d400e40220000e0242001e0242008042eb0095
:1020e400054a78004e729000044078000080fa009f
:1020f400000006004600fa002027980024c0b30020
:10210400044f980024c5b300144f98000042eb001c
:10211400244f980034c0b300344f98000042eb00c1
:10212400444f980054c5b300544f980054c0b300b2
:10213400644f9800a4c0b300744f98000042eb00b1
:102144000457980034c0b30014579800680247003d
:10215400a100200004007800d86402000000000000
:102164000002eb00040f78000002eb003407980033
:102174003e029000140798000042eb004447980088
:102184000002eb00140798001e029000f2024700c0
:10219400048242000400780000660200000000008f
:1021a40000027800e00f520008003200f2024700fb
:1021b4001e02900004824200944278004547980031
:1021c4001e0290000402e800140798004e4290009a
:1021d400e34f5200ecff3a005e5290000402fb0011
:1021e400e60242001e029000848f5200e6ff3c008b
:1021f400be52900094c6b30084cf52002e003a0021
:102204000002eb0014079800100037001e0278004b
:102214007d22b90004027800ae22900004834200bb
:102224001e029000660242000402470024529000fd
:10223400844278001e02900004024300054a78009c
:102244001e0290000402e800140798001e02900089
:10225400e50f5200edff34000002eb001407980074
:10226400110037001e0278007d22b90004027800b4
:10227400ae229000048342001e0290006c024200d1
:102284000402470024529000844278001e02900009
:102294000402430066024200054a78001e029000d0
:1022a4000402e800140798001e029000e20f520096
:1022b400ecff34001e0fe800be52900034c4b3009b
:1022c40004c26a000482fb000402ea004f22de001a
:1022d40004427800ce5290008582fb008502ea0019
:1022e400cf2ade008542780005426200e04f5200aa
:1022f400a3ff3a001e027800040078000080fa0070
:10230400000006004400fa001027980024c0b3001f
:102314003447980024c5b3004447980024c0b30050
:102324005447980064c0b300644798000042eb002f
:1023340074479800a4c5b300044f98001e2290006f
:1023440014427800144f98001e229000144290000a
:10235400244f98001e22900024429000344f98008d
:102364001e22900034429000444f98001e22900098
:1023740044429000544f98001e2290005442900012
:10238400644f980034c0b300744f98006302470050
:10239400d100200004007800d8640200000000008e
:1023a4000002eb00040f78000042eb002447980081
:1023b4001e027800f0024700048242000400780004
:1023c400006602000000000000027800e00f5200e6
:1023d40005003200700247001e0242009442780059
:1023e400254798001e0fe8002e429000e34f52004c
:1023f400efff3a003e5290000402fb0066024200e6
:102404009e0f5200eaff3c00700247001e02420089
:102414008042eb00054a78006e529000e04f520073
:1024240010003a000002eb00040f780009003700a6
:102434009e0278006e82420004024700845290009b
:102444001e2290001e02420069024200054a7800e2
:102454001e0fe8005e5a90000402fb009e0f52001b
:10246400f3ff3c006e529000044078000080fa00b4
:10247400000006004600fa002027980024c0b3009c
:102484003447980024c5b30044479800a4c0b3005f
:102494005447980084c0b300644798000042eb009e
:1024a4007447980044c6b300044f980014c0b300a6
:1024b400144f98002e22900014427800244f980064
:1024c4002e2290000402e80014427800344f980051
:1024d4002e2290000482e80014427800444f9800b1
:1024e4002e2290006302420014427800544f980058
:1024f4002e2290006402420014427800644f980037
:102504002e2290006502420014427800744f980015
:1025140014c0b3000457980034c0b3001457980093
:1025240063024700f100200004007800d864020030
:10253400000000000002eb00040f78000042eb00f2
:10254400244798000002eb00040f78001e02780074
:10255400f202470004824200040078000066020090
:102564000000000000027800e00f52000500320075
:10257400720247001e0242009442780025479800e8
:102584001e0fe8002e429000e34f5200efff3a0086
:102594005e5290000402fb00660242009e0f52004d
:1025a400eaff3c00ce52900094c6b30084c26a0095
:1025b4000582fb000402ea004f22de008442780018
:1025c4004e529000b4c0b2000482fb000402ea0040
:1025d4004f22de000442780004c26200e04f520041
:1025e400d8ff3a000e5a9000044078000080fa00a8
:1025f400000006001600fa0024c0b3003447980017
:1026040024c5b30044479800d4c0b300544798008d
:1026140014c0b300644798000042eb00744798006c
:1026240004c6b300044f980014c0b300144f9800bc
:1026340034c0b300244f9800630247008100200097
:1026440004007800d8640200000000000002eb00df
:10265400040f78000042eb00244798001e02780023
:10266400eb02470004824200040078000066020086
:102674000000000000027800e00f52000500320064
:102684006b0247001e0242009442780025479800de
:102694001e0fe8002e429000e34f5200efff3a0075
:1026a4006e4a90000402fb00660242009e0f520034
:1026b400eaff3c006b0247001e0242008042eb002e
:1026c400054a78005e4a9000d4c0b2000482fb0040
:1026d4000402e9004f22de00044278009e5290007a
:1026e4008582fb008502ea00cf2ade00854278005d
:1026f40005426200e04f5200020032001e52900078
:102704002a0037000002eb00040f78001e02780054
:10271400eb024700048242000400780000660200d5
:102724000000000000027800e00f520005003200b3
:102734006b0247001e02420094427800254798002d
:102744001e0fe8002e429000e34f5200efff3a00c4
:102754006e4a90000402fb00660242009e0f520083
:10276400eaff3c00ce4a900094c6b30084c26a00db
:102774000582fb000402ea004f22de008442780056
:102784005e4b900014c5b30004426b000482fb004e
:102794000402ea004f22de000442780004c2620010
:1027a400e04f5200d7ff3a001e52900004407800d8
:1027b4000080fa00000006008a00fa0030879800c2
:1027c400014f990024c0b3003447980024c5b300d6
:1027d40044479800f4c0b300544798000e4a91004f
:1027e40063424200644798000042eb00744798003b
:1027f4004e429000844278005e42900084c24200bf
:102804006e42900004c24200044f980014c0b3000a
:10281400144f98000e4a9100244f98000042eb0098
:10282400344f98000002eb00040f780009003700d1
:102834009e027800698242009e0278003e839000e6
:10284400850243009542780004024700354298000f
:102854001e0fe8000e4a91000402fb009e0f520076
:10286400f3ff3c000e4a91000402fb00690242009f
:102874000402470035c0b300354298000e4a910067
:102884000402fb00ea02420063024700850078006c
:1028940004007800d8640200000000000002eb008d
:1028a400040f78000042eb00244798001e027800d1
:1028b400b50720008e8242000482420004007800a2
:1028c400006602000000000000027800e00f5200e1
:1028d40006003200b40720000e0242001e0242002d
:1028e40094427800254798001e0fe8002e4290007d
:1028f400e34f5200edff3a006efa90000402fb0031
:10290400660242009e0f5200e8ff3c00b40720001c
:102914000e0242001e0242008042eb00054a78008b
:102924001e429100044078000080fa000000060076
:102934004800fa0024c0b3006447980024c5b300db
:1029440074479800c4c1b300044f98000042eb00e0
:10295400144f98000042eb00244f9800e4c6b300e3
:10296400344f980034c0b300444f980066024700c7
:102974007100200004007800d86402000000000008
:102984000002eb00240798000002eb00040f78001b
:102994000042eb00244798001e027800ed02470035
:1029a4000482420004007800006602000000000077
:1029b40000027800e00f5200050032006d0247006b
:1029c4001e02420094427800254798001e0fe8003a
:1029d4002e429000e34f5200efff3a000e52900057
:1029e4000402fb00660242009e0f5200eaff3c0014
:1029f4004e5290000402fb00240798002e0290001f
:102a0400e00f5200110032000002eb00040f7800c6
:102a1400090037009e0278006882420004024700e1
:102a2400544a90008442780004ff21001e024200b0
:102a3400054a78001e0fe8002e0290006622b900b5
:102a4400040278009e0f5200f2ff3c002e02900018
:102a540004427800044078000080fa000000060078
:102a64001c00fa00500f980024c0b30034479800ab
:102a740024c5b30044479800b4c1b3005447980038
:102a840064c0b300644798000042eb0074479800a8
:102a940034c7b300044f98005e0a90006622b90060
:102aa4000402780005ff210065427a00144f980063
:102ab4005e0a90006622b900040278000402e8006d
:102ac40005ff210065427a00244f98005e0a9000b9
:102ad4006622b900040278000482e80005ff2100a0
:102ae40065427a00344f98005e0a90006622b9006d
:102af400040278006302420005ff210065427a0067
:102b0400444f98005e0a90006622b90004027800df
:102b14006402420005ff210065427a00544f980088
:102b24005e0a90006622b900040278006502420041
:102b340005ff210065427a00644f980034c0b30059
:102b4400744f980063024700d1002000040078000d
:102b5400d8640200000000000002eb00040f7800bb
:102b64000042eb00244798001e027800f002470060
:102b740004824200040078000066020000000000a5
:102b840000027800e00f5200050032007002470096
:102b94001e02420094427800254798001e0fe80068
:102ba4002e429000e34f5200efff3a003e52900055
:102bb4000402fb00660242009e0f5200eaff3c0042
:102bc400700247001e0242008042eb00054a780072
:102bd4006e529000044078000080fa000000060065
:102be4001800fa006057980024c0b30034479800d6
:102bf40024c5b30044479800e4c4b3005447980084
:102c040014c0b300644798000042eb007447980076
:102c140014cab300044f98006e529000144f9800e9
:102c240034c0b300244f98006302470081002000a1
:102c340004007800d8640200000000000002eb00e9
:102c4400040f78000042eb00244798006e52900075
:102c5400e14f5200020034000042eb001b00370039
:102c64001e027800eb024700048242000400780050
:102c7400006602000000000000027800e00f52002d
:102c8400050032006b0247001e02420094427800a5
:102c9400254798001e0fe8002e429000e34f520093
:102ca400efff3a006e4a90000402fb006602420005
:102cb4009e0f5200eaff3c006b0247001e024200d6
:102cc4008042eb00054a78001e52900004407800d0
:102cd4000080fa00000006001600fa0024c0b300c9
:102ce4003447980024c5b30044479800f4c4b300a3
:102cf400544798000042eb00644798000042eb0000
:102d04007447980014cab300044f980034c0b30049
:102d1400144f9800630247007100200004007800fb
:102d2400d8640200000000000002eb00040f7800e9
:102d34000042eb00244798001e027800eb02470093
:102d440004824200040078000066020000000000d3
:102d540000027800e00f5200050032006b024700c9
:102d64001e02420094427800254798001e0fe80096
:102d74002e429000e34f5200efff3a006e4a90005b
:102d84000402fb00660242009e0f5200eaff3c0070
:102d94006b0247001e0242008042eb00054a7800a5
:102da4001e529000044078000080fa0000000600e3
:102db4000200fa002a620200000000000002eb0098
:102dc400040f78000d0037001e02e8004530220091
:102dd40065427a0084427800443022001e02420098
:102de400144278000541780084407800c0cdb300d7
:102df400b0620200000000001e8fe8009e0278000e
:102e0400740d2000848f5200efff360034620200fc
:102e1400000000000080fa00000006000200fa0032
:102e2400881f78002a620200000000000002eb0004
:102e3400040f78000d0037001e04e800443022001f
:102e44001e0242001442780084407800c0cdb300d2
:102e54003e620200000000000042780084427800d4
:102e64004430220005727c001e8fe8009e02780028
:102e7400740d2000848f5200efff3600346202008c
:102e8400000000004f0478000080fa0000000600f3
:102e94000200fa00000f78001e027800e10f5200d1
:102ea40008003200e20f52000a003200e00f520024
:102eb4000c003a0074342200c5c0b300054a7800ff
:102ec4000a0037007434220085c0b300054a780034
:102ed400060037007434220025c0b300054a780088
:102ee400020037000082eb00010037000002eb0013
:102ef400040078000080fa00000006000200fa00d6
:102f0400000f7800440420009e027800848f520051
:102f1400070032001e027800f10f52000400320054
:102f2400340320009e027800848f520006003a0089
:102f34001e0278008442780074332200054a780027
:102f44000002eb00010037000082eb00040078006f
:102f54000080fa00000006000200fa00000f78006a
:102f64001e027800e00f52001b0032000402200011
:102f74009e027800848f5200170032000403200060
:102f84009e027800848f5200130032000404200053
:102f94009e027800848f52000f0032000405200046
:102fa4009e027800848f52000b0032000406200039
:102fb4009e027800848f520007003200040620002d
:102fc4009e027800848f5200030032001e027800b3
:102fd400f00f520006003a001e0278008442780086
:102fe40014332200054a78000002eb000100370088
:102ff4000082eb00040078000080fa000000060064
:103004000800fa002007980031079800ae029000eb
:103014003e029000848f5200020039000082eb00cf
:103024001f003700be02900034382000848f520005
:10303400020036000082eb00190037002e029000d7
:103044000402e900240798002e029000044f78003f
:103054002e0290004822de00144798003e029000a1
:10306400244798003e0290004822de00344798002e
:10307400d43022009e429000054a7800f4302200a9
:103084001e4a780054312200be429000054a78005e
:1030940074312200ae429000054a78000002eb0031
:1030a400040078000080fa00000006000800fa001e
:1030b4002007980031079800ae0290003e0290006d
:1030c400848f5200020039000082eb001c0037009c
:1030d400be029000341f2000848f5200020036008c
:1030e4000082eb00160037002e029000044f780097
:1030f4002e0290004822de00144798003e02900001
:10310400244798003e0290004822de00344798008d
:10311400143122009e429000054a78003431220086
:103124001e4a780094312200be429000054a78007d
:10313400b4312200ae429000054a78000002eb0050
:10314400040078000080fa00000006000c00fa0079
:10315400300798004107980052079800be0290007b
:103164004e029000848f5200020039000082eb006e
:103174002d003700ce029000341f2000848f5200af
:10318400020036000082eb0027003700de029000c8
:1031940034382000848f5200020036000082eb0095
:1031a400210037003e029000044f78003e02900058
:1031b4004822de00144798004e02900024479800ed
:1031c4004e0290004822de00344798005e029000d0
:1031d400444798005e0290004822de00544798005d
:1031e400543922009e429000054a78007439220026
:1031f4001e4a780094392200be429000054a7800a5
:10320400b4392200ae429000054a7800d439220035
:10321400de429000054a7800f4392200ce42900044
:10322400054a78000002eb00040078000080fa00f0
:10323400000006000600fa00100798002107980015
:103244001e029000e00f5200060032002e02900091
:10325400e00f520003003200a4ccb300044f780006
:103264000e0037001e029000e00f520003003200ef
:10327400a4c4b300044f7800080037002e02900065
:10328400e00f520003003200a4c8b300044f7800da
:1032940002003700a4c0b300044f78009e427800b7
:1032a40034332200054a78000080fa00000006004a
:1032b4000400fa0020479800314798000002eb0010
:1032c400040f78000d003700443022001e02420033
:1032d400944278002e42900084cf520006003a00b7
:1032e4001e02e800453022003e43900086727a00b8
:1032f4000002eb00060037001e8fe8009e027800f3
:10330400740d2000848f5200efff36000082eb0022
:10331400040078000080fa00000006000600fa00ad
:1033240020479800210798000002eb00040f780062
:103334000e003700443022001e02420094427800fe
:103344002e42900084cf520007003a001e02e8008b
:1033540045302200e5427a002e029000054a7800aa
:103364000002eb00060037001e8fe8009e02780082
:10337400740d2000848f5200eeff36000082eb00b3
:10338400040078000080fa00000006000200fa0041
:10339400004f780011479800d43122009e429000db
:1033a400054a7800f43122001e4a78000080fa00b1
:1033b400000006000600fa00004f7800114798004c
:1033c400224798003347980044479800f4c4b30058
:1033d4009e42780084cf5200020036000082eb0047
:1033e4000f003700143222001e4a780034322200c3
:1033f4009e429000054a780054322200ae4290006a
:10340400054a780074322200ce429000054a7800c2
:1034140094322200be429000054a78000002eb007c
:10342400040078000080fa00000006000400fa009e
:10343400008fbe001e02be004a2bdd004622de00c5
:1034440004027300c62ade0084427800d4322200cb
:10345400054a78001e02be00422bdd004e22de002b
:1034640004027300ce2ade0084427800b4322200c3
:10347400054a7800f43222008042eb00054a7800c5
:103484000080fa00000006000200fa00004f7800f5
:10349400943322001e4a78000080fa0000000600df
:1034a4000200fa00000f78001e027800e00f5200bc
:1034b40007003200943422009442780004c8b30018
:1034c40084c2720094342200054a78000600370052
:1034d4009434220014427800844278000574a100d8
:1034e40094342200054a78000080fa0000000600a7
:1034f4000400fa00004f7800114798002247980012
:10350400d43422001e4a7800f43422009e429000f3
:10351400054a780014352200ae429000054a78002e
:103524000080fa00000006000200fa00004f780054
:10353400114798009e4278007fc2620006c5b3001e
:103544008642420034352200054a78005435220070
:103554009e429000054a78000080fa0000000600b0
:103564000600fa0010079800414798004e42900068
:10357400e342620054002000842add0004c8b30042
:1035840084c24200b43d2200054a78000002eb00e8
:10359400040f78000a0037001e027800040242007b
:1035a4003405b0009e0278001e039000850243009b
:1035b400154378004530220086727a001e0fe80019
:1035c4001e027800e10f5200f3ff36000080fa007b
:1035d400000006000000fa002a6202000000000059
:1035e400b43d22001442780084427800a43d2200b5
:1035f400144278000541780084407800c0cdb300bf
:10360400b06202000000000034620200000000000a
:10361400c4362200944278006435220014427800b3
:103624008540780004407800020007000080fa001a
:10363400000006000600fa00404798005147980031
:103644000002eb00140798002a6202000000000048
:103654000002eb00040f78001c0037004430220005
:103664001e024200944278004e42900084cf5200e1
:1036740015003900443022001e02420094427800b2
:103684005e42900084cf52000f003e001e02e8000c
:103694004530220065427a0084427800443022009a
:1036a4001e024200144278000541780084407800ec
:1036b400c0cdb300b0620200000000001e02900002
:1036c4000402e800140798001e8fe8009e027800a8
:1036d400740d2000848f5200e0ff36003462020033
:1036e400000000001e029000040078000080fa0030
:1036f400000006000400fa00100798000002eb0026
:10370400040f78000a0037001e0278000402420009
:10371400b406b0009e0278001e03900085024300a8
:10372400154378004530220086727a001e0fe800a7
:103734001e027800e10f5200f3ff36000080fa0009
:10374400000006000200fa00004f780011479800bc
:10375400143822001e4a7800343822009e42900019
:10376400054a78000080fa00000006000200fa0012
:10377400004f780011479800543822001e4a780000
:10378400743822009e429000054a78000080fa00b6
:10379400000006000200fa00004f7800114798006c
:1037a400943822001e4a7800b43822009e429000c9
:1037b400054a78000080fa00000006000200fa00c2
:1037c400004f78009e42780044002000042add0067
:1037d400ef424200143a2200054a78000080fa00c1
:1037e400000006000200fa00004f7800114798001c
:1037f4009e42780044002000842add001e4290008e
:103804006f42620084c24200343a2200054a7800c2
:103814000080fa00000006000200fa00004f780061
:10382400114798009e42900044002000842add0045
:103834001e4378006f42630084c24200543a22005f
:10384400054a78000080fa00000006000400fa002f
:10385400008fbe001e02be0040aade00cfa2de0022
:1038640084427800743a2200054a78001e02be00a1
:10387400482bdd004822de0004027300c8aade00e3
:1038840084427800943a2200054a78001e027800a7
:1038940084427800b43a2200054a78000080fa0095
:1038a400000006000200fa00004f7800d43a22001b
:1038b4001e4a78000080fa00000006000400fa00a6
:1038c400000f7800110798001e0278004822de00dd
:1038d40084427800343b2200054a78001e027800b6
:1038e40084427800543b2200054a78001e0290006e
:1038f4004822de0084427800743b2200054a7800a6
:103904001e02900084427800943b2200054a78000d
:103914000080fa00000006000600fa00004f78005c
:10392400114798002247980033479800444798006d
:1039340055479800b43b2200ae429000054a7800f7
:10394400d43b2200be429000054a7800f43b22009a
:103954001e4a7800143c22009e429000054a7800da
:10396400343c2200ce429000054a7800543c2200a8
:10397400de429000054a78000080fa00000006004c
:103984000800fa00000f7800110798002207980039
:1039940033079800240d20001e0f42001e029000e1
:1039a400240db000140798002e0290006702420014
:1039b400240798003e0290006702420034079800f2
:1039c4009e02900024352000848f520002003600ad
:1039d4000082eb0047003700be029000741e2000f6
:1039e400848f5200020036000082eb004100370051
:1039f4001e0290009e027800848f52000400310061
:103a0400ae0290003e029000848f52000200390002
:103a14000082eb0037003700541a20009e02780021
:103a2400848f52000c0036009e02900094272000e0
:103a3400848f520008003e00ae029000740a2000f9
:103a4400848f520004003600be02900064142000eb
:103a5400848f5200020036000082eb0025003700fc
:103a64001e0278004822de0084427800743c220062
:103a7400054a78001e02780084427800943c2200b3
:103a8400054a78001e0290004822de008442780035
:103a9400b43c2200054a78001e029000844278005b
:103aa400d43c2200054a78002e0290004822de0011
:103ab40084427800f43c2200054a78002e029000eb
:103ac40084427800143d2200054a78003e029000aa
:103ad4004822de0084427800343d2200054a780002
:103ae4003e02900084427800543d2200054a78004a
:103af4000002eb00040078000080fa0000000600d9
:103b04000600fa0010079800210798001e02900092
:103b1400e00f5200060032002e029000e00f520027
:103b240003003200c4c3b300044f78000e00370012
:103b34001e029000e00f520003003200c4c2b30022
:103b4400044f7800080037002e029000e00f520066
:103b540003003200c4c1b300044f780002003700f0
:103b6400c4c0b300044f78009e427800743d220024
:103b7400054a78000080fa00000006000200fa00fe
:103b8400000f78001e027800e00f52000700320098
:103b9400b433220014427800844278000574a100f2
:103ba400b4332200054a780006003700b4332200fb
:103bb4009442780004c8b30084c27200b433220073
:103bc400054a78000080fa00000006000400fa00ac
:103bd400000f7800110798001e027800e00f5200d1
:103be40007003200b433220094427800f4cbb300cf
:103bf40084c26200b4332200054a7800060037000c
:103c0400b43322009442780004c4b30084c2720026
:103c1400b4332200054a78001e029000e00f5200df
:103c240007003200b433220094427800f4cdb3008c
:103c340084c26200b4332200054a780006003700cb
:103c4400b43322009442780004c2b30084c27200e8
:103c5400b4332200054a78000080fa000000060010
:103c64000400fa0014332200144278000482fb009a
:103c740005032000850f52002800320005032000b0
:103c8400850f520008003c00f00f52001b00320068
:103c940005022000850f52001c003200e00f520084
:103ca400120032003100370005052000850f520054
:103cb4002200320005052000850f520004003c005c
:103cc40005042000850f5200180032002700370039
:103cd40005062000850f52001c0032000507200055
:103ce400850f52001d003200200037000400280018
:103cf40005072000048fbe001e00370004002000ca
:103d040065092000048fbe001a0037000400240057
:103d140085032000048fbe00160037000400220033
:103d2400c5012000048fbe001200370004002100ea
:103d3400e5002000048fbe000e0037000480200040
:103d440075002000048fbe000a00370004402800dc
:103d540035002000048fbe000600370004202c002c
:103d640015002000048fbe00020037006022b80056
:103d7400090037007434220014427800ec4f5200da
:103d840004003a001e02be000402420085824a007a
:103d9400048fbe001e02be000400be000080fa00b4
:103da400000006000e00fa00200798003107980072
:103db4004207980053079800640798005e02900039
:103dc400e00f5200030035005e029000e30f520042
:103dd400020034000082eb00650037006e029000a0
:103de400e00f5200030035006e029000e30f520012
:103df400020034000082eb005d00370098ff0700ea
:103e04000002be00666a200006abb9000603780013
:103e14006020b9008003780007034300840278001f
:103e2400646a2000042ab80005034300860278006f
:103e34002e039000cfb3de000601be000400be00d6
:103e44005e050200000000000002be00040f7800be
:103e540083ff07000002be00666a200006abb900bb
:103e6400060378006020b90080037800070343004c
:103e740084027800646a2000042ab8000503430021
:103e8400860278003e039000cfb3de000601be0038
:103e94000400be005e050200000000000002be0037
:103ea400140798001e0278004822de00844278003d
:103eb400f4332200054a78001e0278008442780018
:103ec40014342200054a78001e0290004822de00c5
:103ed4008442780034342200054a78001e0290009f
:103ee4008442780054342200054a78004e0290003f
:103ef400e00f520007003200b4332200144278006d
:103f0400844278000544a000b4332200054a7800b6
:103f140006003700b433220094427800f4ceb30094
:103f240084c26200b4332200054a78006e02900015
:103f340004427800e34262005e029000044278008a
:103f440063436200240020000432dd0084c2420086
:103f5400b43322001443780004cfb3000442630056
:103f640084c24200b4332200054a78000002eb0008
:103f7400040078000080fa00000006000400fa0043
:103f8400000f7800110798001e0278000500200039
:103f94007600200007002000860f5200878f5a0009
:103fa400ef003e00046001000700370023003700e3
:103fb4003f0037005b00370077003700930037007d
:103fc400af003700cb0037001e029000e10f520013
:103fd4000e003600241680004622de006142620094
:103fe4000404a200614262000482fb0061026200d8
:103ff4004622dd0026168000f5fb2f0085026300b3
:1040040005027200241688002c0137001e0290005d
:1040140004427800614262000482fb006102620093
:104024004622dd0026168000f5fb2f008502630082
:104034000502720024168800200137001e02900039
:10404400e10f52000e003600241680004722de00e5
:10405400614262000404a200614262000482fb0027
:10406400610262004722dd0026168000f5f72f006a
:104074008502630005027200241688000f013700d0
:104084001e02900004427800614262000482fb0038
:10409400610262004722dd0026168000f5f72f003a
:1040a40085026300050272002416880003013700ac
:1040b4001e029000e10f52000e003600241680000c
:1040c4004922de00614262000404a20061426200ef
:1040d4000482fb00610262004922dd002616800092
:1040e400f5df2f00850263000502720024168800a4
:1040f400f20037001e029000044278006142620020
:104104000482fb00610262004922dd002616800061
:10411400f5df2f0085026300050272002416880073
:10412400e60037001e029000e10f52000e00360038
:10413400241680004c22de00614262000404a200c6
:10414400614262000482fb00610262004c22dd00d5
:1041540026168000f5ff2e0085026300050272001a
:1041640024168800d50037001e029000044278000f
:10417400614262000482fb00610262004c22dd00a5
:1041840026168000f5ff2e008502630005027200ea
:1041940024168800c90037001e029000e10f520067
:1041a4000e003600241680004a22de0061426200be
:1041b4000404a200614262000482fb006102620006
:1041c4004a22dd0026168000f5bf2f008502630019
:1041d4000502720024168800b80037001e02900001
:1041e40004427800614262000482fb0061026200c2
:1041f4004a22dd0026168000f5bf2f0085026300e9
:104204000502720024168800ac0037001e029000dc
:10421400e10f52000e003600241680004d22de000d
:10422400614262000404a200614262000482fb0055
:10423400610262004d22dd0026168000f5ff2d008c
:104244008502630005027200241688009b00370073
:104254001e02900004427800614262000482fb0066
:10426400610262004d22dd0026168000f5ff2d005c
:104274008502630005027200241688008f0037004f
:104284001e029000e10f52000e003600241680003a
:104294004e22de00614262000404a2006142620018
:1042a4000482fb00610262004e22dd0026168000bb
:1042b400f5ff2b00850263000502720024168800b6
:1042c4007e0037001e0290000442780061426200c2
:1042d4000482fb00610262004e22dd00261680008b
:1042e400f5ff2b0085026300050272002416880086
:1042f400720037001e029000e10f52000d003600dc
:10430400241680004f22de00044278000404a20038
:10431400614262000482fb004f22dd002616800009
:10432400f5ff270085026300050272002416880049
:10433400620037001e02900004427800614262006d
:104344000482fb004f22dd0026168000f5ff2700c3
:1043540085026300050272002416880057003700a6
:104364001e02900004427800614262000482fb0055
:104374004f22dd0026168000f5ff2700850263002a
:104384000502720024168800241680004f22de00e5
:10439400044278000482fb00610262004e22dd00c8
:1043a40026168000f5ff2b008502630005027200cb
:1043b40024168800241680004e22de00614262002a
:1043c4000482fb00610262004d22dd00261680009b
:1043d400f5ff2d0085026300050272002416880093
:1043e400241680004d22de00614262000482fb003c
:1043f400610262004a22dd0026168000f5bf2f000c
:1044040085026300050272002416880024168000c9
:104414004a22de00614262000482fb006102620003
:104424004c22dd0026168000f5ff2e008502630075
:104434000502720024168800241680004c22de0037
:10444400614262000482fb00610262004922dd00d5
:1044540026168000f5df2f00850263000502720036
:1044640024168800241680004922de00614262007e
:104474000482fb00610262004722dd0026168000f0
:10448400f5f72f00850263000502720024168800e8
:10449400241680004722de00614262000482fb0091
:1044a400610262004622dd0026168000f5fb2f0023
:1044b4008502630005027200241688000080fa0059
:1044c400000006000000fa00c4c2a900c4e2a9006a
:1044d400c522a900c582a900c542a900c5a2a90098
:1044e400c5c2a900c5e2a9000080fa0000000600c8
:1044f4000200fa00000f78001e027800e10f52005b
:104504000e003600841680004222de006142620002
:104514000404a200614262000482fb0061026200a2
:104524004222dd0086168000b5ff2f00850263005d
:1045340005027200841688000b0037001e02780002
:1045440004427800614262000482fb00610262005e
:104554004222dd0086168000b5ff2f00850263002d
:1045640005027200841688000080fa00000006002c
:104574000200fa00000f78001e027800e10f5200da
:104584000e003600841680000402d10061426200ed
:104594000404a200614262000482fb006102620022
:1045a4000402420086168000d5ff2f0085026300b6
:1045b40005027200841688000b0037001e02780082
:1045c40004427800614262000482fb0061026200de
:1045d4000402420086168000d5ff2f008502630086
:1045e40005027200841688000080fa0000000600ac
:1045f4000000fa00241680004622de0061426200b8
:1046040004c2ea00614262000482fb0061026200ab
:104614004622dd0026168000f5fb2f00850263008c
:104624000502720024168800241680004722de004a
:104634006142620004c2ea00614262000482fb003b
:10464400610262004722dd0026168000f5f72f0084
:104654008502630005027200241688002416800077
:104664004922de006142620004c2ea006142620043
:104674000482fb00610262004922dd0026168000ec
:10468400f5df2f00850263000502720024168800fe
:10469400241680004c22de006142620004c2ea005b
:1046a400614262000482fb00610262004c22dd0070
:1046b40026168000f5ff2e008502630005027200b5
:1046c40024168800241680004a22de00614262001b
:1046d40004c2ea00614262000482fb0061026200db
:1046e4004a22dd0026168000f5bf2f0085026300f4
:1046f4000502720024168800241680004d22de0074
:104704006142620004c2ea00614262000482fb006a
:10471400610262004d22dd0026168000f5ff2d00a7
:1047240085026300050272002416880024168000a6
:104734004e22de006142620004c2ea00614262006d
:104744000482fb00610262004e22dd002616800016
:10475400f5ff2b0085026300050272002416880011
:10476400241680004f22de000442780004c2ea00ce
:10477400614262000482fb004f22dd0026168000a5
:10478400f5ff2700850263000502720024168800e5
:104794000080fa00000006000000fa0024168000e1
:1047a4004622de006142620004c2ea006142620005
:1047b4000482fb00610262004622dd0026168000ae
:1047c400f5fb2f00850263000502720024168800a1
:1047d4000080fa00000006000000fa0024168000a1
:1047e4004722de006142620004c2ea0061426200c4
:1047f4000482fb00610262004722dd00261680006d
:10480400f5f72f0085026300050272002416880064
:104814000080fa00000006000000fa002416800060
:104824004922de006142620004c2ea006142620081
:104834000482fb00610262004922dd00261680002a
:10484400f5df2f008502630005027200241688003c
:104854000080fa00000006000000fa002416800020
:104864004c22de006142620004c2ea00614262003e
:104874000482fb00610262004c22dd0026168000e7
:10488400f5ff2e00850263000502720024168800dd
:104894000080fa00000006000000fa0024168000e0
:1048a4004a22de006142620004c2ea006142620000
:1048b4000482fb00610262004a22dd0026168000a9
:1048c400f5bf2f00850263000502720024168800dc
:1048d4000080fa00000006000000fa0024168000a0
:1048e4004d22de006142620004c2ea0061426200bd
:1048f4000482fb00610262004d22dd002616800066
:10490400f5ff2d008502630005027200241688005d
:104914000080fa00000006000000fa00241680005f
:104924004e22de006142620004c2ea00614262007b
:104934000482fb00610262004e22dd002616800024
:10494400f5ff2b008502630005027200241688001f
:104954000080fa00000006000000fa00241680001f
:104964004f22de000442780004c2ea006142620081
:104974000482fb004f22dd0026168000f5ff27008d
:104984008502630005027200241688000080fa0084
:10499400000006000200fa00000f78009e00780074
:1049a400a02f2200a25a0200000000000080fa009a
:1049b400000006000000fa00a02f2200085b02009d
:1049c400000000000080fa00000006000200fa0067
:1049d400000f78001e027800e00f5200040035003a
:1049e4009e007800a02f2200585b02000000000007
:1049f4000080fa00000006000000fa004443220090
:104a040014427800e04f52000f003a008000eb009f
:104a14007000200059fd070044432200144278002e
:104a24000482fb00110020000400780053fd0700fd
:104a340044432200144278008442e80044432200a4
:104a4400054a7800270037004443220014427800c6
:104a5400e74f520011003a00444322001442780008
:104a64000482fb000402e9008000eb0004007800eb
:104a740042fd070044432200144278000482fb00f4
:104a840011002000040078003cfd0700444322008c
:104a94008042eb00054a78001200370044432200ac
:104aa400144278000482fb000402e9008000eb0059
:104ab4000400780031fd07004443220014427800ca
:104ac4000482fb0011002000040078002bfd070085
:104ad40044432200144278008442e8004443220004
:104ae400054a78000080fa00000006000000fa0081
:104af40034432200144278000482fb00cfa2de007b
:104b04004600200007002000860f5200878f5a00bd
:104b140023003e0004600100040037000700370052
:104b24000d00370013003700190037002100200062
:104b34000000eb0011fd07001900370021002000e0
:104b4400100020000dfd070021002000700020004f
:104b54000afd070012003700210020002000200079
:104b640006fd0700210020006000200003fd07006f
:104b74000b0037002100200030002000fffc07005c
:104b84002100200050002000fcfc07000400370036
:104b94002100200040002000f8fc07000000000075
:104ba4003443220014427800e34f520006003e00d2
:104bb40034432200144278008442e8003443220043
:104bc400054a780003003700344322008042eb009a
:104bd400054a78000080fa00000006000000fa0090
:104be4002443220014427800e04f520014003a009b
:104bf400a444220014427800e04f52001000320016
:104c04002443220015c0b300054a78008000eb005d
:104c14000000eb00d9fc0700244322001442780072
:104c24000482fb001100200004007800d3fc07007c
:104c3400a44422008042eb00054a78003900370082
:104c44002443220014427800e04f520014003a003a
:104c5400a444220014427800e04f520010003a00ad
:104c64002443220075c0b300054a78008000eb009d
:104c74000000eb00c1fc070024432200144278002a
:104c84000482fb001100200004007800bbfc070034
:104c9400a444220015c0b300054a7800210037005f
:104ca4002443220014427800e74f52000d003a00da
:104cb400244322008042eb00054a78008000eb0088
:104cc40070002000adfc0700244322001442780049
:104cd4000482fb001100200004007800a7fc0700f8
:104ce400100037002443220014427800e14f5200a0
:104cf4000c003a00244322008042eb00054a78006d
:104d04008000eb00100020009cfc070024432200dc
:104d1400144278000482fb00110020000400780093
:104d240096fc07000080fa00000006000000fa006c
:104d340014432200144278000482fb00cfa2de0058
:104d44003600200007002000860f5200878f5a008b
:104d540018003e000460010003003700090037001a
:104d64000f00370012003700210020000000eb0084
:104d740082fc070021002000400020007ffc070087
:104d84000c00370021002000100020007bfc0700ed
:104d9400210020003000200078fc070005003700c7
:104da400210020002000200074fc070001003700cf
:104db400c4fd07001443220014427800e24f52005d
:104dc40006003e0014432200144278008442e800a6
:104dd40014432200054a78000300370014432200dc
:104de4008042eb00054a78000080fa0000000600cb
:104df4000000fa0004432200144278000482fb00fd
:104e0400cfa2de003600200007002000860f5200eb
:104e1400878f5a0018003e00046001000300370029
:104e2400090037000f00370012003700210020006e
:104e34000000eb0051fc070021002000400020008e
:104e44004efc07000c0037002100200070002000f9
:104e54004afc0700210020005000200047fc070006
:104e640005003700210020006000200043fc0700fb
:104e74000100370093fd0700044322001442780028
:104e8400e24f520006003e00044322001442780020
:104e94008442e80004432200054a780003003700f6
:104ea400044322008042eb00054a78000080fa00a7
:104eb400000006000400fa00100798000002eb004e
:104ec400040f7800dc630200000000000042780058
:104ed400e04f520032003200a4fe210094427800d8
:104ee40004c4b30084cf520008003a00a23f220059
:104ef400813f2200603f22000c43020000000000ba
:104f0400a4fe21008042eb00054a78001e029000b6
:104f1400e10f52000e003200e10f5200030039008d
:104f2400e20f5200130032001b003700c51f81003e
:104f3400141f8100048f52001e027800c4a2de00f8
:104f44001e02780046a2de000482520044003700ac
:104f5400b51f8100041f8100048f52001e027800d7
:104f6400c4a2de001e02780046a2de0004825200c3
:104f74003b003700d51f810074228100048f52004a
:104f84001e027800c4a2de001e02780046a2de00e3
:104f94000482520032003700a42920003000370078
:104fa4001e029000e10f520012003200e10f520085
:104fb40003003900e20f52001b00320027003700c3
:104fc400d6fd80009e0290002403200004aab900ac
:104fd400040278000602420084024200c4e8210070
:104fe4000482420094027800041f8100048252006b
:104ff4001b003700d6fd80009e0290002403200091
:1050040004aab900040278000602420084024200a5
:10501400c4e821000482420094027800141f810035
:10502400048252000e003700d6fd80009e029000dc
:105034002403200004aab9000402780006024200f6
:1050440084024200c4e821000482420094027800f1
:10505400742281000482520001003700a429200038
:10506400040078000080fa00000006000e00fa0038
:1050740050079800610798006022b800048fbe00b2
:10508400dc6302000000000000427800e04f5200a0
:105094004f003200a4fe21009442780004c4b300ff
:1050a40084cf520008003a00a23f2200813f220030
:1050b400603f22000c43020000000000a4fe210017
:1050c4008042eb00054a7800c43d22001442780077
:1050d400e04f5200160032005e029000e10f5200d1
:1050e40009003200e10f520003003900e20f5200c0
:1050f400090032000c003700824302000000000067
:10510400000278006c0037005a43020000000000df
:105114000002780068003700aa4302000000000083
:105124000002780064003700a429200062003700e0
:105134005e029000e10f52000f003200e10f5200b6
:1051440003003900e20f5200150032001e00370040
:10515400c01f8100400798004e029000c4a2de00e8
:105164004e02900046a2de00848252000480200099
:105174000482420050003700b11f810041079800ab
:105184004e029000c4a2de004e02900046a2de0051
:1051940084825200048020000482420046003700ca
:1051a400d41f8100440798004e029000c4a2de0080
:1051b4004e02900046a2de00848252000480200049
:1051c400048242003c003700a42920003a00370042
:1051d4005e029000e20f52002f003e006e0290002b
:1051e400e00f52002c003200ee0290002403200055
:1051f400848f520028003e000002eb002407980030
:10520400d5fd80006e029000048252003503200018
:105214008482420024032000110009008482d80003
:10522400010278003407980017003700de0290006e
:105234002403200004aab900840278003e029000ee
:105244000482420084024200c4e821000482420035
:1052540014027800cfa2de001e0f42005e974a00bf
:105264002e0290000402e800240798003e029000f9
:105274008402e80024032000110009008402d800fd
:105284000102780034079800ae0290006e0290008c
:10529400848f5200e5ff39006e0290000500200063
:1052a4000401be001e00be005e05020000000000f6
:1052b4000002be0004027800040078000080fa00b6
:1052c400000006000000fa00dc6302000000000099
:1052d40000427800e04f52000d0032000000eb0065
:1052e400f4fe070000027800241f8900100020004b
:1052f400f0fe070000027800341f8900200020001f
:10530400ecfe070000027800441f890015003700f6
:10531400510020000000eb0054ff07000002780059
:10532400051f810005025200241f8900510020003e
:10533400100020004dff070000027800151f8100b7
:1053440005025200341f8900510020002000200073
:1053540046ff070000027800752281000502520012
:10536400441f89000080fa00000006000000fa00d3
:10537400889fbe00d3ff0700241f81006123b9006a
:10538400241f8100cfa2de0004b8b9000000780019
:1053940006a9b900820078000100400006037800e5
:1053a400040278000433b80007004000800378004a
:1053b400341f81006120b900341f8100cfa2de00b8
:1053c4000489b9000201780000acb90088017800b2
:1053d4000301410000007800040278000402b800d0
:1053e40005014100820278000601420087814a00db
:1053f400441f81006123b900441f8100cfa2de0055
:1054040004b8b9000000780006acb9008800780040
:105414000100400006037800040278000432b8005a
:1054240005004000800278000202420083824a00a4
:105434000400be00fc050200000000000002be00e3
:105444000400be0018070200000000000002be00b5
:10545400541f8900651f8900241f81006123b9003e
:10546400241f8100cfa2de0004b8b9000000780038
:1054740006a9b90082007800010040000603780004
:10548400040278000433b800070040008003780069
:10549400341f81006120b900341f8100cfa2de00d7
:1054a4000489b9000201780000acb90088017800d1
:1054b4000301410000007800040278000402b800ef
:1054c40005014100820278000602420087824a00f8
:1054d4000400be00fc050200000000000002be0043
:1054e4000400be0018070200000000000004be0013
:1054f400441f8100cfa2de000400be00fc050200b0
:10550400000000000002be000801be000400be004e
:10551400d6030200000000000002be00c2092300fe
:10552400532624000400be00b00602000000000060
:105534000002be000401be0000002000412b240034
:105544001a030200000000000002be00941f89003c
:10555400a51f8900941f8100a51f810018c0b300f6
:1055640002002000030a24000400be007c0502009f
:105574000000000000027800e00f52000100350036
:105584000044eb00e04f54000e003a00941f8100e9
:10559400a51f810018c0b3000200200003322400bc
:1055a4000400be0080050200000000000002780034
:1055b400e00f520001003c000044eb00e04f5400b7
:1055c400040032006022b800741f8900851f89001e
:1055d4001f003700341f8100cfa2de000400be008c
:1055e400fc050200000000000004be00241f81002e
:1055f400cfa2de000400be00fc0502000000000093
:105604000002be000801be000400be00d603020072
:10561400000000000002be00c2092300532624003b
:105624000400be00b0060200000000000002be003c
:1056340002002000433324000400be001c030200c7
:10564400000000000002be00741f8900851f89004d
:105654004f04be000080fa00000006000000fa00bb
:10566400c43d220015c0b300054a78002103200080
:105674000000eb007dfe070000027800041f890093
:10568400210320001000200078fe070000027800ab
:10569400141f8900dc63020000000000004278004f
:1056a400e04f5200080032002103200020002000b7
:1056b4006efe07000002780005002c00050242007f
:1056c40074228900060037002103200020002000f6
:1056d40066fe0700000278000430b10074228900dd
:1056e400c43d22008042eb00054a78000080fa00a5
:1056f400000006000c00fa00881f780000047800ff
:105704001aff0700541f8100651f8100048fbe002b
:10571400741f8100851f81002407980035079800b5
:10572400941f8100a51f8100440798005507980025
:105734000e02780088027800b41a7800a412780067
:10574400e482420064024200b41a7800a412780091
:10575400e482420064024200b41a7800a412780081
:10576400e482420064024200080078004f0478009a
:105774000080fa00000006000000fa00fbfe0700ab
:10578400941f8100a51f81000400be000080fa0060
:10579400000006000000fa00f4fe0700741f8100f8
:1057a400851f81000400be000080fa00000006008e
:1057b4000000fa00edfe0700541f8100651f810000
:1057c4000400be000080fa00000006000600fa0093
:1057d400881f780000047800bafe0700241f8100a7
:1057e400040f7800341f810014079800441f8100bf
:1057f400240798003e1c78002e1478002e02900096
:1058040024049800080078004f0478000080fa000f
:10581400000006000000fa00aafe0700241f810011
:10582400040078000080fa00000006000000fa007e
:10583400a4fe0700341f8100040078000080fa00f1
:10584400000006000000fa009efe0700441f8100cd
:10585400040078000080fa00000006000400fa004a
:10586400889fbe006022b800048fbe00c9ff0700f5
:105874000002be00048fbe00f41e8100cfa2de0031
:105884000400be00fc050200000000000002be008f
:105894001e01be000400be001a0302000000000046
:1058a4000002be000400be008405020000000000e7
:1058b4000002be000402780004f0a7000402ea001b
:1058c400cfa2de000400be00fc05020000000000c0
:1058d4000002be0018c0b30002002000030a240026
:1058e4000400be00800502000000000000027800f1
:1058f400e00f520001003c000044eb00e04f540074
:105904002a013200c5e2a900241680004f22de00dd
:10591400044278000482fb00610262004e22dd0032
:1059240026168000f5ff2b00850263000502720035
:1059340024168800241680004e22de006142620094
:105944000482fb00610262004d22dd002616800005
:10595400f5ff2d00850263000502720024168800fd
:10596400241680004d22de00614262000482fb00a6
:10597400610262004a22dd0026168000f5bf2f0076
:105984008502630005027200241688002416800034
:105994004a22de00614262000482fb00610262006e
:1059a4004c22dd0026168000f5ff2e0085026300e0
:1059b4000502720024168800241680004c22de00a2
:1059c400614262000482fb00610262004922dd0040
:1059d40026168000f5df2f008502630005027200a1
:1059e40024168800241680004922de0061426200e9
:1059f4000482fb00610262004722dd00261680005b
:105a0400f5f72f0085026300050272002416880052
:105a1400241680004722de00614262000482fb00fb
:105a2400610262004622dd0026168000f5fb2f008d
:105a340085026300050272002416880019c0b300b1
:105a440002002c00833a24001e00be0080050200e0
:105a54000000000000027800e00f520001003c004a
:105a64008044eb0018c0b30002002000431b240054
:105a74001e00be007c050200000000000002780049
:105a8400e00f5200010034000044eb0008c274002f
:105a9400e04f52000a003200020028006342240052
:105aa4001e00be000606020000000000000278008e
:105ab400e00f520002003200c4c2a800b500370053
